:100000007EC100000C943E190C9469190C9494194B
:100010000C94BF190C94EA190C94151A0C94401AFC
:100020000C946B1A9DC100009BC1000099C1000097
:1000300097C1000095C1000093C100000C949F1867
:100040008FC100008DC100008BC1000089C100007C
:1000500087C1000085C1000083C100000C94961A7E
:100060007FC100000C94FD1D0C94331E79C100006B
:1000700077C1000075C1000073C1000071C10000AC
:100080006FC100006DC100006BC1000069C10000BC
:1000900067C1000065C1000063C1000061C10000CC
:1000A0005FC100005DC100005BC1000059C10000DC
:1000B00057C1000055C1000053C1000051C10000EC
:1000C0004FC100004DC100004BC100000C94A81EA0
:1000D0000C94DE1E45C100000C94531F0C94891F24
:1000E0003FC100008B0289028B028B028B028D02C2
:1000F0008902890289028E02890290028B0289029A
:100100008902890290028E028D0289028B028B0283
:10011000890289028B028B028B0289028702870285
:1001200089028B028B028B021103350315031A031C
:100130001F0324032903A8056005E405C405E4059D
:10014000E4054805E405E405B205E405E405E40535
:10015000BB05E405E205E405CE058E057A05D70565
:10016000BB08E208BF08BF08D408E208E208E208BA
:10017000E208D1087E088208C808CB08C308E20854
:100180008508CE08E2088E08E208B808E208970859
:10019000A2089F08E208B508A908A5089B08D90885
:1001A000DC08DF081819E218EA18F61803192419F0
:1001B0003119C01BC31BB21BB61BBC1BFA1BC71BD0
:1001C000CB1BD11BD51BD91BDF1BE31BE71BFA1B6A
:1001D000ED1BF11BF51B00000A0B02090C0D0E08AC
:1001E0000703040100000000000000000000000000
:1001F00000000000000000000000000000000000FF
:1002000000001211100000000000000000000000BB
:1002100000000000000000000000000001021020AB
:10022000200808102040102040800201020108042C
:1002300002010102040810204080804020100804C0
:100240000201800402018040201008040201080419
:10025000020101020408102040800102040810205D
:100260004080050505050705080808080202020286
:100270000A0A080804040404010101010101010142
:100280000303030303030303040707070C0C0C0C0D
:100290000C0C0C0C020202020606060606060606F6
:1002A0000B0B0B0B0B0B0B0B00002000230026008D
:1002B00029002C002F00320000010000030106017C
:1002C000090100002200250028002B002E0031002B
:1002D000340002010000050108010B0100002100AB
:1002E000240027002A002D00300033000101000007
:1002F000040107010A01B416651E101FBB1F11245B
:100300001FBECFEFD1E2DEBFCDBF00E00CBF13E0D8
:10031000A0E0B2E0EEE2F6E400E00BBF02C007901E
:100320000D92A63DB107D9F729E0A6EDB3E001C0D3
:100330001D92A53AB207E1F712E0CEEFD2E000E05D
:1003400006C022970109FE010BBF0E941123C63F80
:10035000D10780E00807A9F70E9408210C94152313
:100360004FCEDC01ED91FC910190F081E02D1994CC
:10037000FC01E451FD4F71836083E557F240108228
:1003800072972FEF2083089584519D4F26E0FC0142
:10039000808191810C949D1DBF92CF92DF92EF924C
:1003A000FF920F931F93CF93DF93B42EEB018C0139
:1003B00004511D4FBB2061F10E94E01A6B017C01CA
:1003C00088EEC80E83E0D81EE11CF11CD8018D9187
:1003D0009C91DC01ED91FC910480F581E02D199553
:1003E000892B49F40E94E01AC616D706E806F906DA
:1003F00068F780E00EC0BA94F80180819181DC0139
:10040000ED91FC910680F781E02D19958993D2CF6B
:1004100081E0DF91CF911F910F91FF90EF90DF90DE
:10042000CF90BF900895CF92DF92EF92FF920F93FB
:100430001F93CF93DF93EC018B010E94E01A6B01B5
:100440007C01C451DD4F88EEC80E83E0D81EE11C4C
:10045000F11C88819981DC01ED91FC910480F5818A
:10046000E02D1995892B49F40E94E01AC616D7068B
:10047000E806F90670F780E00CC088819981DC01FC
:10048000ED91FC910680F781E02D1995F8018083AC
:1004900081E0DF91CF911F910F91FF90EF90DF905E
:1004A000CF900895CF93DF93CDB7DEB760970FB6A7
:1004B000F894DEBF0FBECDBF80E1E3E2F2E0DE01E3
:1004C000119601900D928A95E1F7FE013196CE01C9
:1004D00041962191261729F0E817F907D1F780E016
:1004E00001C081E060960FB6F894DEBF0FBECDBFAD
:1004F000DF91CF910895862F90E0FC01E058F1093B
:10050000E232F10550F4EE58FF4F0C94EC2282E0F9
:10051000089581E0089580E00895089584E00895A5
:1005200083E00895FC0177A366A30895FC0171A7F9
:1005300060A70895EF920F931F93FC0175A764A71E
:1005400057A746A733AB22AB15AB04ABE459FF4F1B
:10055000E0821F910F91EF900895FC0175A764A7A9
:1005600057A746A70895FC0177A766A708950F939C
:100570001F93CF93DF931F921F92CDB7DEB78B01EE
:1005800042E0BE016F5F7F4F07DF882331F06A8151
:1005900089810E940221F80119950F900F90DF9137
:1005A000CF911F910F910895CF93DF931F92CDB7F5
:1005B000DEB7BE016F5F7F4F36DF882359F0698158
:1005C0008FE0689FB0011124882777FD8095982FD0
:1005D0000E940F1B0F90DF91CF9108958F929F92F1
:1005E000AF92BF92CF92DF92EF92FF920F931F9341
:1005F000CF93DF931F921F92CDB7DEB78C01CDB69C
:10060000DEB641E0BE016F5F7F4FC6DE9980492DA7
:1006100050E04730510508F5FA01EC56FF4F0C94B5
:10062000EC228AE17AE1972E23C086E064E1962EDF
:1006300041E121C08AE05AE1952E45E11CC08EE0DF
:1006400042E2942E4BE117C08CE03AE2932E43E253
:1006500012C084E32AE2922E0BC0692DC80122DF6A
:10066000492D882339F082E006C080E190E1992E7F
:1006700047E001C081E0A82EB12C8DB79EB78A1942
:100680009B090FB6F8949EBF0FBE8DBFADB7BEB726
:1006900011967D01812C941650F1642FC8014A8374
:1006A00001DF91E0980D4A81E42FF0E0282D30E041
:1006B000882389F0EE0FFF1FE00FF11FD701A20F73
:1006C000B31F81818C9383948394D701A90FB11DAB
:1006D00080818C930AC0E00FF11FEC5AFF4F80819C
:1006E000F701E20FF31F8083892E4F5FD4CFF8010B
:1006F000E451FD4F80819181DC01ED91FC910280FC
:10070000F381E02DA501B70119950FB6F894DEBE6F
:100710000FBECDBE0F900F90DF91CF911F910F9123
:10072000FF90EF90DF90CF90BF90AF909F908F9011
:1007300008956F927F928F929F92AF92BF92CF92C5
:10074000DF92EF92FF920F931F93CF93DF931F924D
:10075000CDB7DEB78C018DB69EB641E0BE016F5FAE
:100760007F4F1ADE882309F459C06DB67EB64981E1
:100770008DB79EB7841B91090FB6F8949EBF0FBE2C
:100780008DBF6DB77EB76F5F7F4FC80105DE8111EA
:1007900006C00FB6F8947EBE0FBE6DBE3FC06801A6
:1007A000E12CF12CD801A451BD4F5D01898190E06D
:1007B000E816F90674F76E2DC80174DEF50188237A
:1007C000B9F080819181DC01ED91FC91D601119607
:1007D0006C910190F081E02D1995F5018081918156
:1007E000DC01ED91FC910190F081E02DD6010DC06E
:1007F00080819181DC01ED91FC91D801AE0DBF1D8E
:10080000AC5ABF4F0190F081E02D6C911995BFEF6C
:10081000EB1AFB0AE2E0CE0ED11CC8CF0FB6F8945B
:100820009EBE0FBE8DBE0F90DF91CF911F910F9195
:10083000FF90EF90DF90CF90BF90AF909F908F9000
:100840007F906F9008950F931F93CF93DF9300D005
:10085000CDB7DEB78B0143E0BE016F5F7F4F9CDDFC
:10086000882341F00115110529F04B816A818981A6
:10087000F80119950F900F900F90DF91CF911F9174
:100880000F9108950F931F93CF93DF931F92CDB7CE
:10089000DEB78B01BE016F5F7F4FC5DD882331F06E
:1008A0000115110519F08981F80119950F90DF9153
:1008B000CF911F910F910895AF92BF92CF92DF9287
:1008C000EF92FF920F931F93CF93DF9300D0CDB79A
:1008D000DEB77C01BE016D5F7F4FA5DD882309F483
:1008E0004FC08B81882309F43FC0F701E258FD4FC8
:1008F000808301E010E08B8190E0081719070CF06D
:100900003FC0BE016E5F7F4FC7018DDD882349F177
:1009100068018FEFC81AD80A6A810E0D1F1DF801F1
:10092000E258FD4F6083C701E6DD8601C12CD12C62
:10093000A82EB12CCA14DB04A4F4BE016F5F7F4F54
:10094000C70171DD882349F0F701E00FF11FE2587C
:10095000FD4F898180830F5F1F4F8FEFC81AD80A20
:10096000E9CF0F5F1F4FC7CF80E090E0F701E80F9E
:10097000F91FE258FD4F1082019685369105B1F7B7
:100980000F900F900F90DF91CF911F910F91FF90DB
:10099000EF90DF90CF90BF90AF9008952F923F924D
:1009A0004F925F926F927F928F929F92AF92BF927F
:1009B000CF92DF92EF92FF920F931F93CF93DF932B
:1009C000CDB7DEB72C970FB6F894DEBF0FBECDBF04
:1009D0009C878B87FC01E258FD4F808101E010E08D
:1009E000282F30E03A8329832B853C8528503D4FC2
:1009F0003C832B832B853C852E503D4F3E832D839E
:100A00002B843C8432EE231A3DEE330A4B845C8403
:100A100082E0481A8DEF580A6B847C8494E0691A4E
:100A20009DEF790A2B853C8526503D4F38872F83D3
:100A30002B853C852C503D4F3A872987CB84DC841D
:100A40003AE0C31A3DEFD30AAB84BC848DEFB81AE9
:100A50008B849C849EEF891A9CEF990A29813A81A4
:100A6000021713070CF0B3C08B859C85800F911F74
:100A7000FC01E258FD4F408150E0FA01EA58F109CB
:100A8000E531F10508F0A0C0E556FF4F0C94EC22CB
:100A9000D401ED91FC91309709F496C0A8014E5F06
:100AA0005F4FDC01A158BD4F6C910D5F1F4F2B852F
:100AB0003C85420F531FDA01A258BD4F40E917C0D1
:100AC000D501ED91FC91309709F47EC0A8014E5FED
:100AD0005F4FDC01A158BD4F6C910D5F1F4F2B85FF
:100AE0003C85420F531FDA01A258BD4F4BE88C9151
:100AF00019956AC0D601ED90FC90E114F10409F457
:100B000063C0C80101960E5F1F4F2B853C85820F85
:100B1000931FFC01E258FD4F6DE914C0A985BA8509
:100B2000ED90FC90E114F10409F44EC0C801019667
:100B30000E5F1F4F2B853C85820F931FFC01E258EF
:100B4000FD4F6CE980810E940221F70119953CC09C
:100B5000AF81B885ED91FC913097B1F10F5F1F4FD8
:100B60008AE82EC0D301ED91FC91309769F10F5FB7
:100B70001F4F83E925C0D201ED91FC91309721F1FF
:100B80000F5F1F4F87E91CC0AD81BE81ED91FC91C5
:100B90003097D1F00F5F1F4FC101D8CF0F5F1F4FAC
:100BA00065E179E080E090E00E940F1B0DC0AB8111
:100BB000BC81ED91FC91309739F00F5F1F4F8EE9AA
:100BC000199502C001E010E00F5F1F4F47CF2C9630
:100BD0000FB6F894DEBF0FBECDBFDF91CF911F914E
:100BE0000F91FF90EF90DF90CF90BF90AF909F90CC
:100BF0008F907F906F905F904F903F902F900895CF
:100C00000F931F93CF93DF931F921F92CDB7DEB741
:100C10008C0142E0BE016F5F7F4FBEDB882361F035
:100C20008981B80190E2899F600D711D112462587D
:100C30007F4F4A81C801B0DB0F900F90DF91CF91B9
:100C40001F910F9108950F931F93CF93DF931F92DE
:100C5000CDB7DEB78C0141E0BE016F5F7F4F9CDBFB
:100C6000882399F0F801EE50FD4F0190F081E02DBE
:100C7000309759F08981980140E2849F200D311D01
:100C80001124C90182589F4F19950F90DF91CF9180
:100C90001F910F910895EF92FF920F931F93CF939F
:100CA000DF9300D01F92CDB7DEB78C0144E0BE01C8
:100CB0006F5F7F4F71DB882331F16A8189810E94E8
:100CC000022178012EE4E20EF11CD7018D939C9352
:100CD0006C818B810E940221F801E05BFF4F9183C0
:100CE0008083349611821082329711821082E256EC
:100CF000FD4F0190F081E02D309729F0BC01D70124
:100D00008D919C9119950F900F900F900F90DF91FE
:100D1000CF911F910F91FF90EF900895EF92FF9266
:100D20000F931F93CF93DF9300D01F92CDB7DEB701
:100D30008C0144E0BE016F5F7F4F2EDB882329F1D9
:100D40006A8189810E940221780122E5E20EF11C6C
:100D5000D7018D939C936C818B810E940221F801B5
:100D6000EC5AFF4F9183808334971182108232971F
:100D700011821082E056FD4F0190F081E02D3097F6
:100D800021F0D7016D917C9119950F900F900F90E4
:100D90000F90DF91CF911F910F91FF90EF900895E9
:100DA0008C5F9C4FDC01ED91FC91309711F081E05C
:100DB00019940895EF92FF920F931F93CF93DF93AF
:100DC0001F92CDB7DEB78C0141E0BE016F5F7F4F50
:100DD000E3DA882309F406C18981833009F496C0D7
:100DE000D0F5813009F45EC0823009F0FBC0F80113
:100DF000E85FFC4F0190F081E02D80E090E01995D4
:100E00007801B4E1EB1ABDEFFB0AF7018081918113
:100E1000DC01ED91FC91D801AD51BD4F0190F08105
:100E2000E02D6C911995F70180819181DC01ED91A4
:100E3000FC91D801AA51BD4F0190F081E02D6C9139
:100E40001995F70180819181DC01ED91FC91D80128
:100E5000A951BD4FC2C0843009F48CC08F3F09F046
:100E6000C1C0F801E65FFC4F0190F081E02D20E069
:100E700030E040E050E060E070E080E090E0199504
:100E8000F801E451FD4F80819181DC01ED91FC91ED
:100E9000B8016D517D4F0280F381E02D49E050E0B3
:100EA0001995A0C0F801E85FFC4F0190F081E02D9A
:100EB00080E090E01995780184E1E81A8DEFF80A56
:100EC000D7018D919C91DC01ED91FC91D801AD5140
:100ED000BD4F0190F081E02D6C911995F701808153
:100EE0009181DC01ED91FC91D801AC51BD4F019095
:100EF000F081E02D6C911995F70180819181DC01E1
:100F0000ED91FC91D801AB51BD4F67C0F801E85F8E
:100F1000FC4F0190F081E02D80E090E01995780180
:100F2000B4E1EB1ABDEFFB0AF70180819181DC018E
:100F3000ED91FC91D801AD51BD4F0190F081E02DB4
:100F40006C911995F70180819181DC01ED91FC9103
:100F5000D801A851BD4F0190F081E02D6C911995F9
:100F6000F70180819181DC01ED91FC91D801A751BD
:100F7000BD4F33C0F801E85FFC4F0190F081E02DD8
:100F800080E090E019957801B4E1EB1ABDEFFB0A1F
:100F9000F70180819181DC01ED91FC91D801AD5187
:100FA000BD4F0190F081E02D6C911995F701808182
:100FB0009181DC01ED91FC91D801A651BD4F0190CA
:100FC000F081E02D6C911995F70180819181DC0110
:100FD000ED91FC91D801A551BD4F0190F081E02D1C
:100FE0006C9119950F90DF91CF911F910F91FF9008
:100FF000EF9008950F931F93FC01ED51FD4FAFE962
:10100000A0833196708331966083319650833196F8
:101010004083319630833196208331961083319608
:1010200000831F910F9108950F931F93CF93DF9328
:10103000EC01FC01E45FFC4F81E080838E010451F0
:101040001D4F60EA70E0D8018D919C918AD9F8011A
:1010500080819181DC01ED91FC916FA10190F08183
:10106000E02D1995F80180819181DC01ED91FC91D1
:101070000190F081E02D6EA1DF91CF911F910F9132
:1010800019940F931F93CF93DF93EC01FC01E45F5E
:10109000FC4F82E080838E0104511D4F61EA70E0B5
:1010A000D8018D919C915DD9F80180819181DC01FD
:1010B000ED91FC9169A50190F081E02D1995F80161
:1010C00080819181DC01ED91FC910190F081E02D16
:1010D00068A5DF91CF911F910F911994CF93DF9362
:1010E000EC01462F50E0FA01E058F109E232F10537
:1010F00008F068C0E055FF4F0C94EC22FC01E6506C
:10110000FD4F0FC0FC01FD5F03C0FC01EE5FFC4F13
:1011100060817181CE01DF91CF9195CBFC01E450CC
:10112000FD4F60817181CE01DF91CF91ABCBFC018E
:10113000E250FD4FF6CFFC01E850FD4FF2CFDF91BA
:10114000CF912CCCDF91CF91B7CBFC01EA50FD4F72
:1011500003C0FC01EC50FD4F608171816115710588
:1011600089F1CE01DF91CF9102CADF91CF911CCAE4
:10117000DF91CF91DECAC958DF4F81E018C0C9584E
:10118000DF4F82E014C02ADACE01DF91CF9108CE82
:10119000DF91CF9135CDDF91CF9155CDDF91CF91BB
:1011A000BDCDDF91CF9177CDC958DF4F83E08883E4
:1011B00009C0DF91CF91FECDDF91CF9135CFDF9187
:1011C000CF915FCFDF91CF9108950F931F93CF936E
:1011D000DF93EC018C0104511D4FD8018D919C913E
:1011E000DC01ED91FC910480F581E02D1995892BAE
:1011F00089F0F80180819181DC01ED91FC910680FC
:10120000F781E02D1995682FCE01DF91CF911F91C5
:101210000F9164CFDF91CF911F910F91089528E135
:10122000FC0111922A95E9F708954F925F926F920F
:101230007F928F929F92AF92BF92CF92DF92EF9266
:10124000FF920F931F93CF93DF93CDB7DEB728970D
:101250000FB6F894DEBF0FBECDBF8C014A015B0113
:10126000DC0150962D913D914D915C9153972983CE
:101270003A834B835C83D501C401821B930BA40B7F
:10128000B50B8D839E83AF83B887D80114966D917B
:101290007D918D919C9117972D813E814F8158852D
:1012A0000E949F2224E6422E512C612C712CA30116
:1012B00092010E94D02269017A01F801608571854E
:1012C00082859385A50194010E949F22A30192012A
:1012D0000E94D022C20ED31EE41EF51E2D813E8137
:1012E0004F81588589819A81AB81BC81281B390B3C
:1012F0004A0B5B0BF80184899589A689B789280F69
:10130000391F4A1F5B1F64857585868597850E94F6
:101310009F22A30192010E94D022C20ED31EE41E7E
:10132000F51E29813A814B815C81D80154962D9319
:101330003D934D935C935797F801808A918AA28AD6
:10134000B38AC701B60128960FB6F894DEBF0FBE68
:10135000CDBFDF91CF911F910F91FF90EF90DF9064
:10136000CF90BF90AF909F908F907F906F905F9045
:101370004F9008958BE10E94691C2091DE03892B18
:1013800011F0216001C02E7F2093DE038AE10E94CC
:10139000691C2091DE03892B11F0226001C02D7F92
:1013A0002093DE0389E10E94691C2091DE03892BD2
:1013B00011F0246001C02B7F2093DE0388E10E949E
:1013C000691C2091DE03892B11F0286001C0277F62
:1013D0002093DE0387E10E94691C2091DE03892BA4
:1013E00011F0206101C02F7E2093DE0386E10E9470
:1013F000691C2091DE03892B11F0206201C02F7D32
:101400002093DE038091DE03803149F58091DA0379
:101410009091DB03A091DC03B091DD038C33910547
:10142000A105B1055CF00A97A109B1098093DA031F
:101430009093DB03A093DC03B093DD038091D6038C
:101440009091D703A091D803B091D9038C33910523
:10145000A105B105B4F10A97A109B1092AC08032EA
:1014600081F58091DA039091DB03A091DC03B091C8
:10147000DD0386399105A105B1055CF40A96A11D2D
:10148000B11D8093DA039093DB03A093DC03B09348
:10149000DD038091D6039091D703A091D803B0913A
:1014A000D90386399105A105B1055CF40A96A11D01
:1014B000B11D8093D6039093D703A093D803B09324
:1014C000D903089543E050E06AEB79E082E00C94A0
:1014D000CD188091DE038430B1F128F4813069F0B9
:1014E0008230F9F05FC0803109F44FC0803209F4D6
:1014F00052C0883009F056C037C08BE10E94691C89
:10150000019709F451C065E070E080E090E00E942E
:101510000F1B8BE10E94691C21E0892B09F04DC053
:1015200041C08AE10E94691C019709F43FC065E04F
:1015300070E080E090E00E940F1B8AE10E94691C2D
:10154000892BA1F52FC089E10E94691C019781F1C7
:1015500065E070E080E090E00E940F1B89E10E944E
:10156000691C892B29F51EC088E10E94691C01971E
:1015700009F165E070E080E090E00E940F1B89E1D6
:101580000E94691C892BB1F40DC087E10E94691C7F
:10159000019741F411C086E10E94691C019711F482
:1015A00026E00BC020E009C021E007C022E005C012
:1015B00023E003C024E001C025E0822F089535D741
:1015C00080E090E00E944C1780E290E00E944C176F
:1015D00048EB5BE060E070E080E090E00E94EE1697
:1015E00048EB5BE060E070E080E290E00E94EE1685
:1015F0000E940D13D4D781E00E94261463DF26E0F9
:1016000040E855E260E070E088E099E00E949D1DAE
:1016100084E690E0A0E0B0E08093DA039093DB03EF
:10162000A093DC03B093DD038093D6039093D7039C
:10163000A093D803B093D9030E94361400C70E9428
:10164000A71680914207882331F00E947B140E94E4
:1016500013151092420780916507811137C039DF59
:101660008330B9F060F4813079F0823051F56091C7
:10167000D6037091D7037195619571090EC08430BE
:10168000A1F0873018F11DC06091D6037091D70387
:1016900013C06091D6037091D7038091DA039091C3
:1016A000DB0391958195910910C06091D6037091EB
:1016B000D7037195619571098091DA039091DB03ED
:1016C00004C060E070E080E090E0B8D7F6C799B160
:1016D00089B192FF02C081E005C083FF02C083E0B0
:1016E00001C084E080935F0780915F0720916007CD
:1016F000992787FD9095821B910927FD93958F3F30
:101700002FEF920709F4AAC0D4F58D3F2FEF92076F
:1017100009F472C0029609F0DAC0809170079091C6
:101720007107A0917207B09173070296A11DB11DB8
:101730008093700790937107A0937207B09373071B
:1017400080919C0790919D07A0919E07B0919F0763
:101750000296A11DB11D80939C0790939D07A093B5
:101760009E07B0939F078091940790919507A09151
:101770009607B09197070296A11DB11DA0C08230B7
:10178000910541F08330910509F468C0019709F093
:101790009EC032C08091700790917107A09172072E
:1017A000B09173070297A109B109809370079093D4
:1017B0007107A0937207B093730780919C07909173
:1017C0009D07A0919E07B0919F070297A109B109BB
:1017D00080939C0790939D07A0939E07B0939F07CB
:1017E0008091940790919507A0919607B0919707E3
:1017F0000297A109B10963C08091700790917107A8
:10180000A0917207B09173070197A109B109809364
:10181000700790937107A0937207B093730780913C
:101820009C0790919D07A0919E07B0919F070197FB
:10183000A109B10980939C0790939D07A0939E07EF
:10184000B0939F078091940790919507A091960778
:10185000B09197070197A109B10931C08091700734
:1018600090917107A0917207B09173070196A11D25
:10187000B11D8093700790937107A0937207B09386
:10188000730780919C0790919D07A0919E07B0914E
:101890009F070196A11DB11D80939C0790939D0702
:1018A000A0939E07B0939F0780919407909195070E
:1018B000A0919607B09197070196A11DB11D809345
:1018C000940790939507A0939607B09397078091FC
:1018D0005F0780936007089599B189B192FF02C0B4
:1018E00081E005C083FF02C083E001C084E08093F3
:1018F0005F0780915F0720916007992787FD90958A
:10190000821B910927FD93958F3F2FEF920709F4D2
:10191000AAC0D4F58D3F2FEF920709F472C002964A
:1019200009F0DAC08091700790917107A091720759
:10193000B09173070296A11DB11D8093700790931B
:101940007107A0937207B093730780919C079091E1
:101950009D07A0919E07B0919F070296A11DB11D02
:1019600080939C0790939D07A0939E07B0939F0739
:101970008091940790919507A0919607B091970751
:101980000296A11DB11DA0C08230910541F08330A7
:10199000910509F468C0019709F09EC032C080919A
:1019A000700790917107A0917207B0917307029729
:1019B000A109B1098093700790937107A0937207F2
:1019C000B093730780919C0790919D07A0919E070B
:1019D000B0919F070297A109B10980939C0790934A
:1019E0009D07A0939E07B0939F07809194079091C5
:1019F0009507A0919607B09197070297A109B109A1
:101A000063C08091700790917107A0917207B091A7
:101A100073070197A109B10980937007909371072B
:101A2000A0937207B093730780919C0790919D07D4
:101A3000A0919E07B0919F070197A109B1098093DA
:101A40009C0790939D07A0939E07B0939F0780915A
:101A5000940790919507A0919607B09197070197E9
:101A6000A109B10931C08091700790917107A091CF
:101A70007207B09173070196A11DB11D8093700785
:101A800090937107A0937207B093730780919C079E
:101A900090919D07A0919E07B0919F070196A11D6F
:101AA000B11D80939C0790939D07A0939E07B093D0
:101AB0009F078091940790919507A0919607B09108
:101AC00097070196A11DB11D8093940790939507E8
:101AD000A0939607B093970780915F078093600764
:101AE00008959CB18CB194FF02C081E005C085FFD0
:101AF00002C083E001C084E080936E0780916E078E
:101B000020916F07992787FD9095821B910927FDEA
:101B100093958F3F2FEF920709F4AAC0D4F58D3F1C
:101B20002FEF920709F472C0029609F0DAC0809193
:101B3000610790916207A0916307B09164070297D3
:101B4000A109B1098093610790936207A09363078D
:101B5000B09364078091980790919907A0919A0794
:101B6000B0919B070297A109B109809398079093C0
:101B70009907A0939A07B0939B0780919007909143
:101B80009107A0919207B09193070297A109B1091B
:101B9000A0C08230910541F08330910509F468C0FE
:101BA000019709F09EC032C0809161079091620751
:101BB000A0916307B09164070296A11DB11D8093A7
:101BC000610790936207A0936307B09364078091C5
:101BD000980790919907A0919A07B0919B07029658
:101BE000A11DB11D8093980790939907A0939A0720
:101BF000B0939B078091900790919107A0919207D5
:101C0000B09193070296A11DB11D63C08091610739
:101C100090916207A0916307B09164070196A11D9E
:101C2000B11D8093610790936207A0936307B093FF
:101C300064078091980790919907A0919A07B091B5
:101C40009B070196A11DB11D80939807909399075A
:101C5000A0939A07B0939B0780919007909191076A
:101C6000A0919207B09193070196A11DB11D31C0BB
:101C70008091610790916207A0916307B09164071A
:101C80000197A109B1098093610790936207A0931E
:101C90006307B09364078091980790919907A0918A
:101CA0009A07B0919B070197A109B1098093980702
:101CB00090939907A0939A07B0939B078091900700
:101CC00090919107A0919207B09193070197A10974
:101CD000B1098093900790939107A0939207B093D6
:101CE000930780916E0780936F0708959CB18CB124
:101CF00094FF02C081E005C085FF02C083E001C0FF
:101D000084E080936E0780916E0720916F0799277A
:101D100087FD9095821B910927FD93958F3F2FEFAB
:101D2000920709F4AAC0D4F58D3F2FEF920709F46A
:101D300072C0029609F0DAC0809161079091620743
:101D4000A0916307B09164070297A109B10980933C
:101D5000610790936207A0936307B0936407809133
:101D6000980790919907A0919A07B0919B070297C5
:101D7000A109B1098093980790939907A0939A07B6
:101D8000B0939B078091900790919107A091920743
:101D9000B09193070297A109B109A0C082309105C3
:101DA00041F08330910509F468C0019709F09EC0A5
:101DB00032C08091610790916207A0916307B09152
:101DC00064070296A11DB11D80936107909362077D
:101DD000A0936307B0936407809198079091990747
:101DE000A0919A07B0919B070296A11DB11D809307
:101DF000980790939907A0939A07B0939B078091B7
:101E0000900790919107A0919207B0919307029645
:101E1000A11DB11D63C08091610790916207A091DF
:101E20006307B09164070196A11DB11D80936107FE
:101E300090936207A0936307B0936407809198071B
:101E400090919907A0919A07B0919B070196A11DC7
:101E5000B11D8093980790939907A0939A07B09328
:101E60009B078091900790919107A0919207B09164
:101E700093070196A11DB11D31C08091610790911A
:101E80006207A0916307B09164070197A109B109A6
:101E90008093610790936207A0936307B0936407F0
:101EA0008091980790919907A0919A07B0919B070C
:101EB0000197A109B1098093980790939907A0937E
:101EC0009A07B0939B078091900790919107A091FA
:101ED0009207B09193070197A109B10980939007E8
:101EE00090939107A0939207B093930780916E0708
:101EF00080936F07089508950895009731F4611550
:101F0000710519F41092650703C021E0209365075D
:101F100021E02093240720932507DC01AC308EEFCD
:101F2000B80714F4ACE0BEEFA53F81E0B80714F0A9
:101F3000A4EFB1E0AB016C308EEF780714F44CE005
:101F40005EEF453F81E0580714F044EF51E02AE08E
:101F500030E00E9401236093FF037093000480939C
:101F6000010490930204DA010E9401236093E303C9
:101F70007093E4038093E5039093E60308958091C2
:101F8000A0079091A107A091A207B091A307019685
:101F9000A11DB11D8093A0079093A107A093A20754
:101FA000B093A3078091A0079091A107A091A207E9
:101FB000B091A3070C97A105B1051CF081E08093B7
:101FC0004207089563E372E08BE698E00C943F20AB
:101FD00069E472E08BE698E00C943F206FE572E0D4
:101FE0008BE698E00C943F2066E772E08BE698E081
:101FF0000C943F206AE872E08BE698E00C943F2056
:102000006EE972E08BE698E00C943F206BEA72E098
:102010008BE698E00C943F2067EC72E08BE698E04A
:102020000C943F2063EE72E08BE698E00C943F2026
:10203000409188075091890760918A0770918B07BA
:1020400040938007509381076093820770938307C2
:1020500080918C0790918D07A0918E07B0918F078A
:102060008093840790938507A0938607B093870792
:1020700020917C0730917D07E0912807F091290796
:102080002E0F3F1F30937D0720937C0720917E0702
:1020900030917F07E0912607F09127072E0F3F1F11
:1020A00030937F0720937E07415659476E4F7F4FED
:1020B0004F335D406340710550F481569347AF4FF5
:1020C000BF4F8F339941A140B10508F448C0109229
:1020D0009C0710929D0710929E0710929F071092E6
:1020E00098071092990710929A0710929B071092E6
:1020F00090071092910710929207109293071092F6
:1021000094071092950710929607109297071092D5
:1021100088071092890710928A0710928B071092F5
:102120008C0710928D0710928E0710928F071092D5
:102130007407109275071092760710927707109225
:1021400078071092790710927A0710927B07109205
:102150007D0710927C0710927F0710927E0767EF31
:1021600072E08BE698E00C943F2063E073E08BE62E
:1021700098E00C943F20CF93C82F61E173E08BE689
:1021800098E00E943F204AE050E06C2F8BE698E0F8
:10219000CF910C94A820AF92BF92CF92DF92EF9292
:1021A000FF920F931F93CF93DF93EC0141155105DD
:1021B0002FEF620772070CF44CC0DB01CA014130FB
:1021C000510521E06207710524F080E090E0A1E074
:1021D000B0E00097A105B10591F460E08E810E9406
:1021E000341C60E08885DF91CF911F910F91FF90A3
:1021F000EF90DF90CF90BF90AF900C94341C1816E6
:1022000019061A061B064CF59B838A83BC01CD0177
:10221000882799271F9221E02F931F921F92A12CAC
:10222000B12C6501E12CF12C01E010E020E030E060
:10223000A9010E94BD207B836A8360E08E810E9499
:10224000341C0F900F900F900F906A817B818885CE
:102250002AC080E090E0AFEFBFEF919581959109A2
:102260009B838A83BC0180E090E01F9221E02F9342
:102270001F921F92A12CB12C6501E12CF12C01E0E1
:1022800010E020E030E0A9010E94BD207B836A833A
:1022900060E088850E94341C0F900F900F900F9083
:1022A0006A817B818E81DF91CF911F910F91FF9089
:1022B000EF90DF90CF90BF90AF90FEC5CF93DF93AC
:1022C000EC0161E08C810E94FB1B61E08E810E9429
:1022D000FB1B61E08885DF91CF910C94FB1B809103
:1022E000B607813091F51092B6078091AD0790E066
:1022F000982F88272091AE07822B9093AB0780936D
:10230000AA078091AF0790E0982F88272091B00707
:10231000822B9093A9078093A8078091B10790E042
:10232000982F88272091B207822B9093A70780933C
:10233000A6078091B30790E0982F88272091B407D3
:10234000822B9093A5078093A4070895CF93DF93E2
:1023500000D01F92CDB7DEB769837A838B839C83CD
:1023600029813A814B815C81A4E7B2E00E94072376
:102370009B01AC01A0911202B0E00E94072328E16A
:1023800036E040E050E00E94D022CA01B9010F902F
:102390000F900F900F90DF91CF910895CF92DF9221
:1023A000EF92FF92621B730B840B950B0E94B0217E
:1023B00020E030E040E251E40E943C226B017C01CD
:1023C00060910D0270910E0280910F0290911002A7
:1023D0000E94AE219B01AC01C701B6010E941521EC
:1023E0000E947D21FF90EF90DF90CF900895CF92D3
:1023F000DF92EF92FF926B017C01CA01B901A70144
:102400009601CCDF9B01AC01A0E5B6E40E94072356
:102410002AE331E040E050E00E94D022CA01B90135
:10242000FF90EF90DF90CF90089561E08091510789
:102430000E94341C61E0809147070C94341CEF9299
:102440000F931F9389E090E0909352078093510778
:102450008BE090E090935407809353078CE090E0DA
:10246000909356078093550784E090E09093480737
:102470008093470786E090E090934A07809349074E
:1024800087E090E090934C0780934B078DE497E0B2
:1024900015DF83E497E012DF60E0809151070E942E
:1024A000341C60E0809147070E94341C8DE79FE058
:1024B000909306078093050782EE9FE090930807AC
:1024C0008093070788EE9FE090930A07809309079F
:1024D0008EEE9FE090930C0780930B0784EF9FE0B4
:1024E00090930E0780930D078AEF9FE0909310075B
:1024F00080930F0780E090E190931807809317076F
:1025000086E090E190931A07809319078CE090E1A0
:1025100090931207809311078BEB90E1909314072F
:102520008093130782E190E190931607809315073B
:1025300000910502109106022091070230910802D5
:102540004091090250910A0260910B0270910C02B5
:10255000E090040287E194E00E949A0288E190E111
:1025600090931C0780931B0785EB90E190931E07C7
:1025700080931D078BE79FE09093200780931F07B0
:102580008CE79FE0909322078093210761E373E03B
:102590008BE698E01F910F91EF900C943F2060E044
:1025A00083E10E94FB1B60E083E10E94341C60E039
:1025B00082E10E94FB1B60E082E10E94341C41E04A
:1025C00050E06CE67CE084E0E8D541E050E067E66E
:1025D0007BE085E0E2D560E082E00E94FB1B60E0EA
:1025E00082E00E94341C60E083E00E94FB1B60E0FC
:1025F00083E00E94341C41E050E066E77EE080E02A
:10260000CCD541E050E061E77DE081E0C6D565E4EE
:1026100073E08BE698E00C943F2040E051EE60E0E0
:1026200070E087E194E00E94C40126E040E855E2B2
:1026300060E070E08BE698E00C949D1DAB01009784
:1026400019F56115710501F510926A0710926B0773
:1026500010926C0710926D07109266071092670730
:10266000109268071092690710925B0710925C073E
:1026700010925D0710925E0710925707109258074C
:102680001092590710925A072AE030E0DC010E94AC
:1026900001236093FF0370930004809301049093DF
:1026A0000204DA010E9401236093E3037093E403C0
:1026B0008093E5039093E6030895CF92DF92EF9223
:1026C000FF920F931F93CF93DF9300D01F92CDB74C
:1026D000DEB787E194E00E94E5084091090250913D
:1026E0000A0260910B0270910C0287E194E00E9453
:1026F000AD0262E170E087E194E00E94B3022091B4
:102700009C0730919D0740919E0750919F078091B3
:10271000980790919907A0919A07B0919B07280F6D
:10272000391F4A1F5B1FAAE3B1E00E94072328E17B
:1027300036E040E050E00E94D022A0911202B0E0CA
:102740000E940723609388077093890780938A0704
:1027500090938B07609198077091990780919A07E1
:1027600090919B07F3DD9B01AC0160919C077091F8
:102770009D0780919E0790919F0729833A834B8301
:102780005C83E4DD29813A814B815C8130DE60939A
:102790008C0770938D0780938E0790938F07E4E6E4
:1027A000CE2ED12CE12CF12CA70196010E94D02233
:1027B00080917E0790917F07281B390B3093270764
:1027C00020932607609188077091890780918A0776
:1027D00090918B07A70196010E94D02280917C07DF
:1027E00090917D07B901681B790B7093290760935D
:1027F000280787E194E00E94920260912607709179
:10280000270787E194E00E9496020091A4071091A7
:10281000A5072091A6073091A7074091A8075091DE
:10282000A9076091AA077091AB0787E194E00E9425
:10283000FA070F900F900F900F90DF91CF911F919B
:102840000F91FF90EF90DF90CF9049CD0F931F93A2
:10285000682F70E080E090E00FEB1FE02FE632E1A0
:1028600043E85AE3ACD31F910F9108C48FEF93E074
:102870000E940F0983EE93E00E940F0988EC90E01C
:10288000A0E0B0E08093030490930404A0930504B7
:10289000B09306048093E7039093E803A093E903C1
:1028A000B093EA0384E690E0A0E0B0E080930704F0
:1028B00090930804A0930904B0930A048093EB0357
:1028C0009093EC03A093ED03B093EE0382E390E0CA
:1028D000A0E0B0E080930B0490930C04A0930D044F
:1028E000B0930E048093EF039093F003A093F10351
:1028F000B093F20308954F925F926F927F928F92FE
:102900009F92AF92BF92CF92DF92EF92FF9220916F
:102910007007309171074091720750917307409092
:102920006107509062076090630770906407809120
:10293000A0079091A107A091A207B091A307892BAE
:102940008A2B8B2B09F462C08090A0079090A1077E
:10295000A090A207B090A307A4E5BDE30E940723BF
:10296000F6E8CF2EDD24D394E12CF12CA7019601BB
:102970000E94D022A0911202B0E00E940723A5017C
:1029800094010E94D02220936A0730936B074093F2
:102990006C0750936D078090A0079090A107A090BE
:1029A000A207B090A307A4E5BDE3A30192010E9492
:1029B0000723A70196010E94D022A0911102B0E046
:1029C0000E940723A50194010E94D022209366074C
:1029D0003093670740936807509369071092700718
:1029E000109271071092720710927307109261078C
:1029F0001092620710926307109264071092A0076A
:102A00001092A1071092A2071092A307FF90EF90D7
:102A1000DF90CF90BF90AF909F908F907F906F90FE
:102A20005F904F900895CF92DF92EF92FF92809146
:102A30006A0790916B07A0916C07B0916D07809326
:102A40003E0790933F07A0934007B09341078091C2
:102A5000660790916707A0916807B0916907809316
:102A60003A0790933B07A0933C07B0933D074091F2
:102A70003E0750913F076091400770914107809158
:102A8000FF0390910004A0910104B0910204841B03
:102A9000950BA60BB70B8093360790933707A0933F
:102AA0003807B093390740913A0750913B0760913E
:102AB0003C0770913D078091E3039091E403A0915E
:102AC000E503B091E603841B950BA60BB70B80932F
:102AD000320790933307A0933407B09335074091A2
:102AE00036075091370760913807709139078FEF9B
:102AF00093E00E94150960932E0770932F0780932F
:102B0000300790933107409132075091330760911D
:102B100034077091350783EE93E00E9415096093A6
:102B20002A0770932B0780932C0790932D07809191
:102B30002E0790912F07A0913007B0913107813077
:102B40009540A105B1052CF080E095E0A0E0B0E053
:102B500011C080912E0790912F07A0913007B0915E
:102B6000310781159B4FAF4FBF4F64F480E09BEF5F
:102B7000AFEFBFEF80932E0790932F07A0933007FE
:102B8000B093310780912A0790912B07A0912C07D1
:102B9000B0912D0781309540A105B1052CF080E062
:102BA00095E0A0E0B0E011C080912A0790912B073A
:102BB000A0912C07B0912D0781159B4FAF4FBF4FB0
:102BC00064F480E09BEFAFEFBFEF80932A07909310
:102BD0002B07A0932C07B0932D0740912E075091FF
:102BE0002F07609130077091310780915B079091BA
:102BF0005C07A0915D07B0915E07840F951FA61F2B
:102C0000B71F80935B0790935C07A0935D07B09319
:102C10005E0740912A0750912B0760912C07709115
:102C20002D078091570790915807A0915907B091AF
:102C30005A07840F951FA61FB71F809357079093BD
:102C40005807A0935907B0935A0780915B0790915A
:102C50005C07A0915D07B0915E07C0905707D090C8
:102C60005807E0905907F0905A074091FF035091A0
:102C70000004609101047091020441155105610541
:102C8000710571F08CF0009721E0A207B10524F0E6
:102C90008FEF9FEFA0E0B0E0AC01BD01B7FF18C01F
:102CA00040E050E0BA0114C0181619061A061B06B7
:102CB0001CF480E090E0DC01AC01BD014130510525
:102CC0008FEF6807780724F441E050E06FEF7FEF63
:102CD0008DE497E060DA8091E3039091E403A091A2
:102CE000E503B091E6030097A105B10599F0B7019E
:102CF000A601181619061A061B0684F4C114D1047D
:102D000021E0E206F10424F04FEF5FEF60E070E0B5
:102D100077FF16C040E050E0BA0112C01C141D0439
:102D20001E041F041CF440E050E0BA01413051057C
:102D30008FEF6807780724F441E050E06FEF7FEFF2
:102D400083E497E0FF90EF90DF90CF9024CA8091CA
:102D50002307813011F410922307809123078230DA
:102D600011F41092230708956EEC77E087E194E068
:102D70000C94B80188E099E0D4D51816190624F50A
:102D800088E099E0E7D5E091B707EE2319F0E93044
:102D900049F012C08332C1F491E09093B707809359
:102DA000AC0708958A3281F48093B5071092B70773
:102DB00081E08093B607089591E09E0F9093B70746
:102DC000F0E0E455F84F80830895FC01EF57FF4F82
:102DD0008081887F6770862B80830895CF92DF92F1
:102DE000EF92FF92CF93DF93EC016A017B01DB014D
:102DF000CA010197A109B10980389448AE41B105D3
:102E000008F042C09A01AB016EEF7FEF81E090E0E5
:102E10000E949F229B01AC0160E074E284EF90E08D
:102E20000E94AE22E0E061E06E0FF0E0EE0FFF1FC7
:102E3000E855FC4F808191818217930710F4E62FAB
:102E4000F2CFA7019601220F331F441F551FE62E14
:102E5000F12CF701EE0FFF1FE855FC4FA081B18167
:102E60000E9407239B01AC0160E074E284EF90E0D4
:102E70000E94AE22FE01EA57FF4F31832083B70143
:102E8000CE01A3DF81E001C080E0DF91CF91FF9010
:102E9000EF90DF90CF900895FC01E058FF4F208124
:102EA0002C7F208331962081277E2061208344EF70
:102EB00051E060E070E092CF0F931F93CF93DF93C8
:102EC000C82F8B0161E097D40115110511F460E062
:102ED00005C00F3F8FEF180739F461E08C2FDF91A9
:102EE000CF911F910F91C0C4EC2FF0E0EA52FE4F3A
:102EF000E49194E0E99FF0011124E45AFC4F5081E1
:102F00008181482F4170982F96958281282F27958F
:102F100022272795C22FC92B81FB992790F9D92FFA
:102F2000282F269526959381892F8295880F880FC3
:102F3000807C822B92FB332730F9292F269526950A
:102F400026952F7097FB992790F9209799F1E82FF4
:102F5000F32F30819923C1F081E090E001C0880F08
:102F60002A95EAF7382B3083E52FF42F2081318121
:102F7000D8010E94F2222FEF3FEF40E050E00E9484
:102F8000AE223983288316C081E090E001C0880F0B
:102F90002A95EAF7382B3083E52FF42FA08198018A
:102FA000B0E00E94F2222FEF3FEF40E050E00E949D
:102FB000AE222883DF91CF911F910F910895CF9278
:102FC000DF92EF92FF920F931F936B017C01CA0176
:102FD000B901C114D104E104F10421F4C12CD12CB4
:102FE0007601C394C092C107D092C207E092C30792
:102FF000F092C4071093C0070093BF0720917000A0
:103000002E7F209370002091B0002C7F2093B00081
:103010002091B100277F2093B1002091B6002F7D31
:103020002093B600209170002D7F20937000209196
:10303000B10024602093B1002091B1002C7F209337
:10304000B10020E034E244E75BE40E943C2220E04F
:1030500030E040E85CE30E943C220E947D2120E0B9
:1030600031E0261B370B3093B9072093B8071F9127
:103070000F91FF90EF90DF90CF9008951092BB07D3
:103080001092BC071092BD071092BE071092BA07AB
:103090008091B8079091B9078093B200E0E7F0E023
:1030A00080818160808308958091BB079091BC07E7
:1030B000A091BD07B091BE070196A11DB11D8093DF
:1030C000BB079093BC07A093BD07B093BE07809148
:1030D000BB079091BC07A091BD07B091BE0740917E
:1030E000C1075091C2076091C3077091C40784174C
:1030F0009507A607B70710F18091BA0781111EC086
:1031000081E08093BA078091BB079091BC07A091A2
:10311000BD07B091BE07841B950BA60BB70B809320
:10312000BB079093BC07A093BD07B093BE07E09187
:10313000BF07F091C00719951092BA0708951F9222
:103140000F920FB60F9211240BB60F922F933F934D
:103150004F935F936F937F938F939F93AF93BF939F
:10316000EF93FF938091B8079091B9078093B200D5
:103170009BDFFF91EF91BF91AF919F918F917F91D5
:103180006F915F914F913F912F910F900BBE0F90D8
:103190000FBE0F901F9018950895883008F06DC0ED
:1031A000E82FF0E0EE0FFF1FED5EFD4F71836083AF
:1031B00090E0FC013197E730F10590F5EE52FF4FBA
:1031C0000C94EC22809169008C7F842B80936900A1
:1031D000E89A089580916900440F551F440F551FC8
:1031E000837F842B80936900E99A08958091690018
:1031F00074E0440F551F7A95E1F78F7C842B809300
:103200006900EA9A08958091690066E0440F551FAD
:103210006A95E1F78F73842B80936900EB9A089588
:1032200080916A008C7F842B80936A00EC9A0895C9
:1032300080916A00440F551F440F551F837F842BD4
:1032400080936A00ED9A089580916A0024E0440F0B
:10325000551F2A95E1F78F7C842B80936A00EE9AA4
:10326000089580916A0096E0440F551F9A95E1F702
:103270008F73842B80936A00EF9A08951F920F92A8
:103280000FB60F9211240BB60F922F933F934F93CB
:103290005F936F937F938F939F93AF93BF93EF93BE
:1032A000FF93E0911702F09118021995FF91EF91A9
:1032B000BF91AF919F918F917F916F915F914F914E
:1032C0003F912F910F900BBE0F900FBE0F901F904C
:1032D00018951F920F920FB60F9211240BB60F92F2
:1032E0002F933F934F935F936F937F938F939F930E
:1032F000AF93BF93EF93FF93E0911902F0911A02FD
:103300001995FF91EF91BF91AF919F918F917F910F
:103310006F915F914F913F912F910F900BBE0F9046
:103320000FBE0F901F9018951F920F920FB60F921D
:1033300011240BB60F922F933F934F935F936F938C
:103340007F938F939F93AF93BF93EF93FF93E091FE
:103350001B02F0911C021995FF91EF91BF91AF9163
:103360009F918F917F916F915F914F913F912F919D
:103370000F900BBE0F900FBE0F901F9018951F92CD
:103380000F920FB60F9211240BB60F922F933F930B
:103390004F935F936F937F938F939F93AF93BF935D
:1033A000EF93FF93E0911D02F0911E021995FF919A
:1033B000EF91BF91AF919F918F917F916F915F91AD
:1033C0004F913F912F910F900BBE0F900FBE0F901A
:1033D0001F9018951F920F920FB60F9211240BB6E3
:1033E0000F922F933F934F935F936F937F938F939E
:1033F0009F93AF93BF93EF93FF93E0911302F091EC
:1034000014021995FF91EF91BF91AF919F918F9108
:103410007F916F915F914F913F912F910F900BBED4
:103420000F900FBE0F901F9018951F920F920FB61E
:103430000F9211240BB60F922F933F934F935F93EC
:103440006F937F938F939F93AF93BF93EF93FF936C
:10345000E0911502F09116021995FF91EF91BF913D
:10346000AF919F918F917F916F915F914F913F911C
:103470002F910F900BBE0F900FBE0F901F901895BD
:103480001F920F920FB60F9211240BB60F922F932B
:103490003F934F935F936F937F938F939F93AF93DC
:1034A000BF93EF93FF93E0911F02F09120021995D3
:1034B000FF91EF91BF91AF919F918F917F916F910C
:1034C0005F914F913F912F910F900BBE0F900FBEC8
:1034D0000F901F9018951F920F920FB60F92112404
:1034E0000BB60F922F933F934F935F936F937F93FE
:1034F0008F939F93AF93BF93EF93FF93E09121023C
:10350000F09122021995FF91EF91BF91AF919F9198
:103510008F917F916F915F914F913F912F910F907C
:103520000BBE0F900FBE0F901F9018951F920F9219
:103530000FB60F9211242F933F938F939F93AF93C6
:10354000BF938091C6079091C707A091C807B0911B
:10355000C9073091C50723E0230F2D3720F40196CA
:10356000A11DB11D05C026E8230F0296A11DB11DA6
:103570002093C5078093C6079093C707A093C807F9
:10358000B093C9078091CA079091CB07A091CC074F
:10359000B091CD070196A11DB11D8093CA079093EC
:1035A000CB07A093CC07B093CD07BF91AF919F916C
:1035B0008F913F912F910F900FBE0F901F901895F4
:1035C0002FB7F8946091C6077091C7078091C8071C
:1035D0009091C9072FBF08953FB7F8948091CA070B
:1035E0009091CB07A091CC07B091CD0726B5A89BB1
:1035F00005C02F3F19F00196A11DB11D3FBF6627E1
:10360000782F892F9A2F620F711D811D911D42E025
:10361000660F771F881F991F4A95D1F708958F92DB
:103620009F92AF92BF92CF92DF92EF92FF926B0187
:103630007C01D2DF4B015C01C114D104E104F1042F
:10364000E1F0F2D5C9DF681979098A099B09683E5A
:1036500073408105910580F321E0C21AD108E10889
:10366000F10888EE880E83E0981EA11CB11CC114DD
:10367000D104E104F10431F7DFCFFF90EF90DF9048
:10368000CF90BF90AF909F908F900895789484B51D
:10369000826084BD84B5816084BD85B5826085BD4E
:1036A00085B5816085BDEEE6F0E080818160808334
:1036B000E1E8F0E010828081826080838081816017
:1036C0008083E0E8F0E0808181608083E1EBF0E0DE
:1036D000808184608083E0EBF0E080818160808382
:1036E000E1E9F0E080818260808380818160808375
:1036F000E0E9F0E0808181608083E1EAF0E08081B0
:1037000082608083808181608083E0EAF0E0808154
:1037100081608083E1E2F1E080818260808380814A
:1037200081608083E0E2F1E0808181608083EAE76C
:10373000F0E08081846080838081826080838081EA
:10374000816080838081806880831092C1000895A9
:1037500090E0FC013197E231F10508F04BC0E752EF
:10376000FF4F3AC7809180008F7703C0809180001F
:103770008F7D80938000089580918000877FF9CFAE
:1037800084B58F7702C084B58F7D84BD0895809104
:10379000B0008F7703C08091B0008F7D8093B00020
:1037A0000895809190008F7707C0809190008F7D61
:1037B00003C080919000877F80939000089580914E
:1037C000A0008F7707C08091A0008F7D03C08091FB
:1037D000A000877F8093A0000895809120018F77BB
:1037E00007C0809120018F7D03C080912001877FD9
:1037F000809320010895CF93DF9390E0FC01E45E75
:10380000FD4F2491FC01EE59FD4F8491882349F12D
:1038100090E0880F991FFC01E452FD4FA591B491EF
:103820008E539D4FFC01C591D4919FB7611108C083
:10383000F8948C91209582238C93888182230AC0EE
:10384000623051F4F8948C91322F309583238C930D
:103850008881822B888304C0F8948C91822B8C936E
:103860009FBFDF91CF9108950F931F93CF93DF9365
:103870001F92CDB7DEB7282F30E0F901EA52FE4F94
:103880008491F901E45EFD4F1491F901EE59FD4F69
:1038900004910023C1F0882319F0698359DF6981FD
:1038A000E02FF0E0EE0FFF1FEE53FD4FA591B49116
:1038B0009FB7F8948C91611103C01095812301C0CA
:1038C000812B8C939FBF0F90DF91CF911F910F9110
:1038D0000895CF93DF93282F30E0F901EA52FE4F8D
:1038E0008491F901E45EFD4FD491F901EE59FD4F49
:1038F000C491CC2389F081112BDFEC2FF0E0EE0F87
:10390000FF1FE855FD4FA591B4912C912D2381E027
:1039100090E021F480E002C080E090E0DF91CF9160
:103920000895FC01818D228D90E0805C9F4F821B69
:1039300091098F7399270895FC01918D828D9817B5
:1039400031F0828DE80FF11D858D90E008958FEFA5
:103950009FEF0895FC01918D828D981761F0828D03
:10396000DF01A80FB11D5D968C91928D9F5F9F73B3
:10397000928F90E008958FEF9FEF08958CE59EE180
:10398000892B39F080E090E0892B19F095D18111D5
:1039900023C080E090E0892B41F080E090E0892B0B
:1039A00021F00E94000081111AC087E09FE1892B5D
:1039B00039F080E090E0892B19F029D2811112C0F2
:1039C00082EB9FE1892B91F08AEB96E1892B71F0D4
:1039D000C9D281110AC008950E940000DACF0E9466
:1039E0000000E3CF0E940000EBCFC4C90895FC01A2
:1039F000848DDF01A80FB11DA35ABF4F2C91848D78
:103A000090E001968F739927848FA689B7892C93AC
:103A1000A089B1898C9180648C93938D848D981347
:103A200006C00288F389E02D80818F7D8083089510
:103A3000CF93DF93EC01888D8823C1F0EA89FB895D
:103A4000808185FD05C0A889B9898C9186FD0EC04D
:103A50000FB607FCF5CF808185FFF2CFA889B98921
:103A60008C9185FFEDCFCE01C2DFE8CFDF91CF9102
:103A70000895CF92DF92FF920F931F93CF93DF931E
:103A80001F92CDB7DEB76C0181E0D60158968C93BA
:103A900058975B969C915B975C968C915C9798137A
:103AA00007C05096ED91FC915197808185FD2DC006
:103AB000F601038D10E00F5F1F4F0F731127F02EDB
:103AC000F601848DF81210C00FB607FCF9CFD601AD
:103AD0005096ED91FC915197808185FFF1CFC60101
:103AE000698385DF6981ECCF838DE80FF11DE35A8F
:103AF000FF4F6083D6015B960C935B975296ED91D6
:103B0000FC915397808180620CC0D6015696ED914E
:103B1000FC91579760835096ED91FC91519780816D
:103B20008064808381E090E00F90DF91CF911F91BE
:103B30000F91FF90DF90CF900895BF92CF92DF92C8
:103B4000EF92FF92CF93DF93EC016A017B01B22EDB
:103B5000E889F98982E08083411581EE5807610583
:103B6000710599F060E079E08DE390E0A70196019E
:103B7000F5D421503109410951095695479537959A
:103B80002795211580E1380790F0E889F98910829E
:103B900060E874E88EE190E0A7019601DFD421503F
:103BA0003109410951095695479537952795EC8577
:103BB000FD853083EE85FF852083188EEC89FD8995
:103BC000B082EA89FB89808180618083EA89FB89F0
:103BD000808188608083EA89FB8980818068808316
:103BE000EA89FB8980818F7D8083DF91CF91FF906F
:103BF000EF90DF90CF90BF9008951F920F920FB675
:103C00000F9211240BB60F922F938F939F93EF93E4
:103C1000FF93E091DE07F091DF078081E091E407F8
:103C2000F091E50782FD12C090818091E7078F5FD8
:103C30008F732091E807821751F0E091E707F0E0D9
:103C4000E253F84F958F8093E70701C08081FF9181
:103C5000EF919F918F912F910F900BBE0F900FBE00
:103C60000F901F9018951F920F920FB60F9211246C
:103C70000BB60F922F933F934F935F936F937F9366
:103C80008F939F93AF93BF93EF93FF938EEC97E047
:103C9000AEDEFF91EF91BF91AF919F918F917F9198
:103CA0006F915F914F913F912F910F900BBE0F90AD
:103CB0000FBE0F901F9018958EEC97E032DE21E03A
:103CC000892B09F420E0822F08951092D1071092D9
:103CD000D00788EE93E0A0E0B0E08093D207909305
:103CE000D307A093D407B093D50788EB93E09093C4
:103CF000CF078093CE0785EC90E09093DB0780930D
:103D0000DA0784EC90E09093DD078093DC0780EC89
:103D100090E09093DF078093DE0781EC90E0909332
:103D2000E1078093E00782EC90E09093E3078093B3
:103D3000E20786EC90E09093E5078093E407109209
:103D4000E7071092E8071092E9071092EA07089532
:103D50001F920F920FB60F9211240BB60F922F9352
:103D60008F939F93EF93FF93E0917B08F0917C08F2
:103D70008081E0918108F091820882FD12C09081DB
:103D8000809184088F5F8F7320918508821751F08E
:103D9000E0918408F0E0E559F74F958F809384080F
:103DA00001C08081FF91EF919F918F912F910F9092
:103DB0000BBE0F900FBE0F901F9018951F920F9281
:103DC0000FB60F9211240BB60F922F933F934F9380
:103DD0005F936F937F938F939F93AF93BF93EF9373
:103DE000FF938BE698E003DEFF91EF91BF91AF91D7
:103DF0009F918F917F916F915F914F913F912F9103
:103E00000F900BBE0F900FBE0F901F9018958BE672
:103E100098E087DD21E0892B09F420E0822F0895C6
:103E200010926E0810926D0888EE93E0A0E0B0E06A
:103E300080936F0890937008A0937108B0937208F4
:103E400088EB93E090936C0880936B0885ED90E08D
:103E5000909378088093770884ED90E090937A08A7
:103E60008093790880ED90E090937C0880937B08A4
:103E700081ED90E090937E0880937D0882ED90E044
:103E80009093800880937F0886ED90E0909382085D
:103E900080938108109284081092850810928608F9
:103EA0001092870808951F920F920FB60F92112457
:103EB0000BB60F922F938F939F93EF93FF93E09105
:103EC0001809F09119098081E0911E09F0911F09EC
:103ED00082FD12C09081809121098F5F8F732091A4
:103EE0002209821751F0E0912109F0E0E85FF64FD6
:103EF000958F8093210901C08081FF91EF919F915F
:103F00008F912F910F900BBE0F900FBE0F901F90AF
:103F100018951F920F920FB60F9211240BB60F92A5
:103F20002F933F934F935F936F937F938F939F93C1
:103F3000AF93BF93EF93FF9388E099E058DDFF9133
:103F4000EF91BF91AF919F918F917F916F915F9111
:103F50004F913F912F910F900BBE0F900FBE0F907E
:103F60001F90189588E099E0DCDC21E0892B09F4AA
:103F700020E0822F089510920B0910920A0988EE12
:103F800093E0A0E0B0E080930C0990930D09A0931A
:103F90000E09B0930F0988EB93E090930909809381
:103FA000080985E391E0909315098093140984E34F
:103FB00091E0909317098093160980E391E0909324
:103FC00019098093180981E391E090931B0980936C
:103FD0001A0982E391E090931D0980931C0986E3FE
:103FE00091E090931F0980931E091092210910926D
:103FF000220910922309109224090895CF92DF928A
:10400000EF92FF920F931F93CF93DF937C016A018E
:10401000EB0100E010E00C151D0571F06991D7016E
:10402000ED91FC910190F081E02DC7011995892B4C
:1040300019F00F5F1F4FEFCFC801DF91CF911F9194
:104040000F91FF90EF90DF90CF900895611571056B
:1040500081F0DB010D900020E9F7AD0141505109DD
:10406000461B570BDC01ED91FC910280F381E02DA2
:10407000199480E090E0089564EC73E0E7CF0F932B
:104080001F93CF93DF93EC01E1DF8C01CE01F4DFCE
:10409000800F911FDF91CF911F910F9108958F9203
:1040A0009F92AF92BF92DF92EF92FF920F931F9376
:1040B000CF93DF93CDB7DEB7A1970FB6F894DEBFED
:1040C0000FBECDBF7C01F42FD52ECB0119A222301B
:1040D00008F42AE08E010F5D1F4F822E912CA12C37
:1040E000B12C6F2F7D2DA501940138D2F22FD32E44
:1040F000CA01015011096A3014F4E0E301C0E7E39A
:10410000E60FD801EC93232B242B252B51F7B80174
:10411000C7019CDFA1960FB6F894DEBF0FBECDBFDE
:10412000DF91CF911F910F91FF90EF90DF90BF90A3
:10413000AF909F908F9008952115310541F4DC01D7
:10414000ED91FC910190F081E02D642F1994A7CF9F
:104150000F931F93CF93DF93EC019A01462F50E00A
:1041600060E070E0E9DF8C01CE0186DF800F911FF7
:10417000DF91CF911F910F9108954F925F926F92AF
:104180007F92AF92BF92CF92DF92EF92FF920F9306
:104190001F93CF93DF93CDB7DEB729013A01621B9E
:1041A000730B840B950B2A893B894C895D892A19ED
:1041B0003B094C095D092A8B3B8B4C8B5D8B9B012A
:1041C000AC016A897B898C899D89B9D1E418F5088D
:1041D00006091709A8019701E3D12A0D3B1D4C1DC3
:1041E0005D1DCA01B901DF91CF911F910F91FF9021
:1041F000EF90DF90CF90BF90AF907F906F905F90E7
:104200004F90089570E09B01382BC90108950895DF
:104210003DDAFDDF0E94DF0ACEEBDCE10E941F0BDE
:104220002097E1F3ABDBFACF08950CD0EBC0E3D0DD
:1042300040F0DAD030F021F45F3F19F0CCC05111DA
:1042400015C1CFC0F0D098F39923C9F35523B1F32A
:10425000951B550BBB27AA2762177307840738F0F5
:104260009F5F5F4F220F331F441FAA1FA9F333D054
:104270000E2E3AF0E0E830D091505040E695001C08
:10428000CAF729D0FE2F27D0660F771F881FBB1FC4
:10429000261737074807AB07B0E809F0BB0B802D9E
:1042A000BF01FF2793585F4F2AF09E3F510568F0EA
:1042B00092C0DCC05F3FECF3983EDCF386957795C7
:1042C0006795B795F7959F5FC9F7880F911D9695EC
:1042D000879597F90895E1E0660F771F881FBB1F48
:1042E000621773078407BA0720F0621B730B840BF5
:1042F000BA0BEE1F88F7E095089504D06894B111C9
:10430000B5C0089598D088F09F5790F0B92F99279D
:10431000B751A0F0D1F0660F771F881F991F1AF0D0
:10432000BA95C9F712C0B13081F09FD0B1E00895BD
:104330009CC0672F782F8827B85F39F0B93FCCF33E
:10434000869577956795B395D9F73EF490958095C6
:10435000709561957F4F8F4F9F4F0895E89409C0E6
:1043600097FB3EF490958095709561957F4F8F4FA8
:104370009F4F9923A9F0F92F96E9BB279395F695BE
:10438000879577956795B795F111F8CFFAF4BB0F3C
:1043900011F460FF1BC06F5F7F4F8F4F9F4F16C0A0
:1043A000882311F096E911C0772321F09EE8872F2A
:1043B000762F05C0662371F096E8862F70E060E0E6
:1043C0002AF09A95660F771F881FDAF7880F96955F
:1043D000879597F9089597F99F6780E870E060E006
:1043E00008959FEF80EC089500240A94161617068E
:1043F00018060906089500240A94121613061406D6
:1044000005060895092E0394000C11F4882352F038
:10441000BB0F40F4BF2B11F460FF04C06F5F7F4FF0
:104420008F4F9F4F089557FD9058440F551F59F0D7
:104430005F3F71F04795880F97FB991F61F09F3F91
:1044400079F087950895121613061406551FF2CFBA
:104450004695F1DF08C0161617061806991FF1CF0A
:1044600086957105610508940895E894BB27662731
:104470007727CB0197F908950BD0C4CFB5DF28F08B
:10448000BADF18F0952309F0A6CFABCF1124EECFF9
:10449000CADFA0F3959FD1F3950F50E0551F629F9F
:1044A000F001729FBB27F00DB11D639FAA27F00D8D
:1044B000B11DAA1F649F6627B00DA11D661F829FB4
:1044C0002227B00DA11D621F739FB00DA11D621F99
:1044D000839FA00D611D221F749F3327A00D611DB6
:1044E000231F849F600D211D822F762F6A2F112498
:1044F0009F5750408AF0E1F088234AF0EE0FFF1FEB
:10450000BB1F661F771F881F91505040A9F79E3F21
:10451000510570F060CFAACF5F3FECF3983EDCF31B
:10452000869577956795B795F795E7959F5FC1F75E
:10453000FE2B880F911D9695879597F90895DB01BD
:104540008F939F9364D0BF91AF91A29F800D911DD7
:10455000A39F900DB29F900D11240895A1E21A2EF1
:10456000AA1BBB1BFD010DC0AA1FBB1FEE1FFF1F17
:10457000A217B307E407F50720F0A21BB30BE40B67
:10458000F50B661F771F881F991F1A9469F76095AE
:104590007095809590959B01AC01BD01CF01089568
:1045A000052E97FB16F400940FD057FD05D0D6DFEB
:1045B00007FC02D046F408C05095409530952195EF
:1045C0003F4F4F4F5F4F089590958095709561953F
:1045D0007F4F8F4F9F4F0895EE0FFF1F0590F4916F
:1045E000E02D1994A29FB001B39FC001A39F700D4D
:1045F000811D1124911DB29F700D811D1124911DEB
:104600000895F0DFB7FF0895821B930B0895EADF4A
:10461000A59F900DB49F900DA49F800D911D112416
:0E46200008950790F691E02D1994F894FFCFBD
:10462E00010000001894119411FA0040385B090043
:10463E00002222CC18CC18CC18CC18CC18CC18CC04
:10464E0018CC1813141617191A1B1C1D1E1F212700
:10465E0028292A68616E646C65206472697665200B
:10466E00636F6D6D616E64730068616E646C65205E
:10467E00736F6E677320636F6D6D616E6473007719
:10468E006169742064697374616E636520636F6D14
:10469E006D616E6473007761697420616E676C651D
:1046AE0020636F6D6D616E64730077616974206550
:1046BE0076656E7420636F6D6D616E6473004C452C
:1046CE004420636F6D6D616E647300636F6E747200
:1046DE006F6C2050574D204C6576656C7320636F60
:1046EE006D6D616E647300636F6E74726F6C2050CB
:1046FE00574D204F757470757420636F6D6D616EBC
:10470E00647300636F6E74726F6C20495220636F16
:10471E006D6D616E6473006765742053656E736FA3
:10472E007273004765742071756572794C69737484
:10473E0000636F6E74726F6C204469676974616C8C
:10474E00204F757470757420636F6D6D616E647338
:10475E000053657475704D6F746F722066696E6963
:10476E0073686564005365747570456E636F646538
:10477E0072732066696E69736865640000000000DC
:10478E000000000047901029861001BA861401AA75
:10479E00861801AA0000000000000000B368C12ABC
:1047AE00963041BA963441AA9638419AA65081BAAB
:1047BE00A65481AAA658819A00000000265182BCF8
:1047CE00265582AC2659829C00000100080040004C
:1047DE000001000400000000391DFE1F911CAA1CE0
:1047EE009C1C181D0D0A006E616E00696E66006FCE
:0647FE007666002E0000AB
:00000001FF
